:020000040800F2
:1000000010080020650200086F2400087F20000807
:100010006D2400081D06000873260008000000007B
:100020000000000000000000000000007324000831
:10003000D1060008000000007124000875240008A3
:100040007F0200087F0200087F0200087F0200088C
:100050007F0200087F0200087F0200087F0200087C
:100060007F020008D30600087F0200087F02000814
:100070007F0200087F0200087F0200087F0200085C
:100080007F0200087F020008E90400087F020008E0
:100090007F0200087F0200087F0200087F0200083C
:1000A0007F0200087F0200087F0200087F0200082C
:1000B000292500087F0200087F0200087F0200084F
:1000C0007F0200087F0200087F0200087F0200080C
:1000D0007F0200087F0200087F0200087F020008FC
:1000E0007F0200087F0200087F0200087F020008EC
:1000F0007F0200087F0200087F0200087F020008DC
:100100007F0200087F0200087F0200087F020008CB
:100110007F0200087F020008352500087F020008E2
:10012000210600087F0200087F0200087F02000805
:100130007F02000800000000000000007F020008AD
:100140007F0200087F0200087F0200087F0200088B
:100150007F0200087F0200087F0200087F0200087B
:100160007F0200087F0200087F0200087F0200086B
:100170007F0200087F0200087F02000800000000E4
:10018000000000007F0200080000000000000000E6
:100190007F02000800000000000000007F0200084D
:1001A0000000000000000000000000007F020008C6
:1001B0007F0200087F0200087F0200087F0200081B
:1001C0007F02000800F002F800F03CF80AA090E876
:1001D000000C82448344AAF10107DA4501D100F002
:1001E00031F8AFF2090EBAE80F0013F0010F18BF93
:1001F000FB1A43F001031847C4280000E42800005C
:10020000103A24BF78C878C1FAD8520724BF30C842
:1002100030C144BF04680C60704700000023002414
:1002200000250026103A28BF78C1FBD8520728BF06
:1002300030C148BF0B6070471FB502F029FC1FBDDD
:1002400010B510BD00F0CFF81146FFF7F5FF02F032
:10025000C7FA00F0EDF803B4FFF7F2FF03BC00F0BB
:10026000F5F800000948804709480047FEE7FEE727
:10027000FEE7FEE7FEE7FEE7FEE7FEE7FEE7FEE756
:1002800004480549054A064B704700001925000837
:10029000C5010008100200201008002010040020F2
:1002A0001004002053EA020C00F069802DE9F04BA5
:1002B0004FF00006002B1FBFB3FA83F503FA05F4D5
:1002C00024FA05F65E4012BF1643B2FA82F502FA2E
:1002D00005F4C5F120051EBF22FA05FC44EA0C0412
:1002E000203556EA044C4FEA144418BF641C4FF002
:1002F00000084FF00009904271EB030C39D300293C
:1003000019BFB1FA81F701FA07F6B0FA80F700FADF
:1003100007F6C7F120071EBF20FA07FC46EA0C06C5
:100320002037B6FBF4FCA7EB0507103F07F01F0BC7
:10033000CBF120060CFA0BFB2CFA06F644BFB346B1
:100340000026202FA4BF5E464FF0000B5BEA060C90
:1003500008BF4FF0010B19EB0B09ABFB027C48EB1C
:100360000608C01B06FB02CC0BFB03CC71EB0C0197
:10037000C1E70B46024641464846BDE8F08B13B53F
:100380004FF000004FF00001AFF30080BDE81C40CB
:1003900070474FF0000200B5134694469646203948
:1003A00022BFA0E80C50A0E80C50B1F12001BFF42E
:1003B000F7AF090728BFA0E80C5048BF0CC05DF894
:1003C00004EB890028BF40F8042B08BF704748BFE2
:1003D00020F8022B11F0804F18BF00F8012B704756
:1003E000704770477047754600F02CF8AE46050020
:1003F0006946534620F00700854618B020B5FFF740
:100400003FFFBDE820404FF000064FF000074FF0DF
:1004100000084FF0000B21F00701AC46ACE8C00922
:10042000ACE8C009ACE8C009ACE8C0098D4670472B
:1004300010B50446AFF300802046BDE81040FFF73A
:100440000ABF000000487047B00100200149182091
:10045000ABBEFEE726000200704710B50146806B78
:10046000026C12F0500F05D0026CD20626D500F0B7
:10047000EBF910BD016C41F40071016401688A68F8
:1004800012F0405F17D1027EAAB9CA6A12F4700F47
:1004900002D08A6852050ED44A6822F020024A60CF
:1004A000016C21F480710164016CC90403D4016CF6
:1004B00041F00101016400F0C5F910BD806BC26C10
:1004C000BDE810400846104710B5806B402101641C
:1004D000416C41F00401416400F0B6F910BD10B563
:1004E000806B00F0B0F910BD014800F0AEB900001B
:1004F00024000020464910B54A6822F440324A6080
:100500004A6843681A434A6001684A6822F4807264
:100510004A6001684A68036942EA03224A60016846
:100520004A6822F040724A6001684A6883681A4348
:100530004A6001688A6822F400628A6001688A68F9
:10054000C3681A438A60816A6FF07062D1420168A1
:100550008A6822F070628A6001688A680CD0836AB7
:100560001A438A6001688A6822F040528A600168F2
:100570008A68C36A1A4301E022F040528A60016827
:100580008A6822F002028A6001688A68037E42EA71
:1005900043028A6090F82010002901684A680FD051
:1005A00042F400624A6001684A6822F460424A608C
:1005B00001684A68174C436A04EB43331A4301E06D
:1005C00022F400624A600168CA6A22F47002CA62B8
:1005D0000168CA6A838B104C04EB03531A43CA6246
:1005E00001688A6822F400728A6001688A6890F85B
:1005F000303042EA43228A6001688A6822F48062CD
:100600008A6001688A68406942EA8020886010BD7B
:100610000023014000E0FFFF0000F0FFFEE70000C4
:10062000014800F0D9BA00005001002001681823E9
:10063000CAB2103AB2FBF3F2054B6FF30901032A79
:100640009B5CC36500D9091D8165084670470000A1
:100650009A2A000810B5014600208B698A6A4FF07B
:10066000C07453B1B3F5005F15D072B1012A0CD03C
:10067000022A0AD0032A09D104E01AB1012A06D0BD
:10068000022A03D1C96AC90100D5012010BDC96A77
:10069000A142FAD010BD002AF7D0012AF2D0022AD6
:1006A000F3D0032AF3D010BD30B50468256825F4D3
:1006B00080252560046863608368402B036803D04D
:1006C00099600068C26030BD9A600068C16030BD4A
:1006D0007047082000F00ABC72B6FEE770470000C1
:1006E00078B50024009490F83C20012A19D001220A
:1006F00080F83C200A6807230568092A13D9EE68A8
:100700000A3A02EB420293409E43EE600B788A68FD
:100710000A3B03EB43039A400368DD682A43DA602F
:1007200010E0022078BD2E6902EB420293409E4306
:100730002E610B788A6803EB43039A4003681D69B6
:100740002A431A614A681F23072A13D205686E6B71
:10075000521E02EB820293409E436E630A8893B25C
:100760000A79521E02EB820293400268556B2B43BA
:10077000536327E005680D2A12D22E6BD21F02EBBD
:10078000820293409E432E630B790A88DB1F92B24C
:1007900003EB83039A4003681D6B2A431A6311E03D
:1007A000EE6A0D3A02EB820293409E43EE620B79B1
:1007B0000A880D3B92B203EB83039A400368DD6A1B
:1007C0002A43DA621B4B0568194A9D420AD10D681B
:1007D000122D07D1556825F400055560556845F47C
:1007E0008005556005689D421DD1134D0B68AB42D5
:1007F00001D0112B17D1536823F480035360536841
:1008000043F4000353600968A9420CD10B490C4A18
:100810000968B1FBF2F101EB8101490000E0491EDA
:1008200000910029FBD180F83C40002078BD0000F9
:100830000023014000200140120000102000002091
:1008400040420F0070477047704770B5044600681B
:1008500001684268C1F34001C2F3401251B34AB388
:10086000216CC90603D4216C41F4007121648168B4
:1008700011F0405F17D1217EA9B9C16A11F4700F40
:1008800002D0816849050ED4416821F02001416001
:10089000206C20F480702064206CC00403D4206C91
:1008A00040F0010020642046FFF7CCFF21686FF084
:1008B00012000860206801684268C1F38001C2F339
:1008C000C01289B382B3216CC90603D4216C41F4F0
:1008D00000512164816811F4401F1ED1816B11F415
:1008E000401F02D08168490517D44168490514D4D6
:1008F000816811F0405F10D1217E71B9416821F00B
:1009000080014160206C20F480502064206CC00580
:1009100003D4206C40F0010020642046FFF7DEFE87
:1009200021686FF00C00086020680168426811F0CF
:10093000010FC2F380120ED06AB10068C0070AD05E
:10094000206C40F480302064204600F046F8216896
:100950006FF001000860206801684268C1F340112F
:10096000C2F3806200290DD0002A0BD0616C41F0E7
:10097000020161646FF0200505602046FFF764FF07
:100980002068056070BD70B504004FF0000503D00D
:10099000206C002610B107E0012070BD204600F059
:1009A0001DF8666484F83C60206CC00610D4206C8E
:1009B00020F4885040F0020020642046FFF79AFDA2
:1009C0006664206C20F0020040F00100206400E02A
:1009D000012584F83C60284670BD704770B586B02C
:1009E000064614216846FFF7D4FC21493068884246
:1009F0003BD120480025016841F480710160006806
:100A000000F4807005901B481438016841F0010122
:100A100001600068694600F0010005900320009025
:100A2000CDE90105144800F06DFA154C1348C4E9EE
:100A300000050015A560C4E90350800060618000D6
:100A4000A0618011C4E907052046656200F094F9B1
:100A500008B1FFF741FEB463002211461220A663DD
:100A600000F04CFD122000F03BFD06B070BD000010
:100A7000002001404438024000000240106402405F
:100A800050010020F8B5044600200E46009094F86E
:100A90003C10012907D0012184F83C1021688B68A3
:100AA000DB0702D011E00220F8BD8B6843F00103A0
:100AB0008B604049404B0968B1FBF3F101EB410108
:100AC00000E0491E00910029FBD121688B68DB05FD
:100AD00003D58B6823F480738B6021688B68DB07F8
:100AE0005DD0236C40F20165AB4343F48073236413
:100AF0004968490505D5216C21F4005141F4805124
:100B00002164216CC90404D5616C21F00601616483
:100B100000E0606484F83C00A16B2948274DC8635D
:100B2000A16B28480864A16B2748C86421686FF04E
:100B3000220008602068416841F0806141602068BF
:100B4000816841F4807181602168134632464C31DE
:100B5000A06B00F07BF968681C49C006206806D0CD
:100B6000884224D1816811F0405F13D01FE0884291
:100B7000F8D0174A904203D1D1F80423D206F1D01D
:100B8000144A904213D1D1F8041301F01F01102927
:100B9000E8D30CE0816841F08041816007E0206C7F
:100BA00040F010002064606C40F0010060640020A0
:100BB000F8BD00002000002040420F00002301404B
:100BC0005B040008DF040008C9040008002001409D
:100BD00000210140002201402DE9F84304464FF076
:100BE0000009CDF8009063484FF41651A56D0068D8
:100BF000B0FBF1F72E6894F85C10082000FA01F1C0
:100C000031420FD021680A6852070BD50A6822F0DA
:100C100004020A6094F85C108840A860606D40F09F
:100C20000100606594F85C104FF0010808FA01F0CB
:100C3000304208D021684969090604D5A860606D72
:100C400040F00200606594F85C1004208840304257
:100C500008D021680968890704D5A860606D40F054
:100C60000400606594F85C1010208840304218D071
:100C700021680968090714D5A8602068016849033C
:100C800004D50068000308D5A16C07E00168C90518
:100C900003D4016821F008010160216C09B12046EC
:100CA000884794F85C1020208840304231D0216879
:100CB0000968C9062DD5A86094F835000528206874
:100CC000016806D0490347D5006800031DD4616C54
:100CD0001CE021F0160101602068416921F08001CB
:100CE0004161206C08B9A06C20B12068016821F036
:100CF0000801016094F85C103F208840A86084F8E7
:100D0000358084F83490216D1FE0E16B09B12046F5
:100D10008847606D00282BD0606DC00714D0052077
:100D200084F835002068016821F001010160009815
:100D3000401C0090B84203D820680068C007F6D174
:100D400084F8358084F83490E16C002910D001B02B
:100D50002046BDE8F04308470168C905D5D40168BD
:100D600021F01001016084F8358084F83490CCE7DC
:100D7000BDE8F883200000202DE9F041044600F092
:100D8000C1F906465CB1022084F83500002584F8DC
:100D900034502068016821F0010101600DE001205C
:100DA000BDE8F08100F0AEF9801B052805D92020B0
:100DB0006065032084F83500F2E720680068C0070A
:100DC000F0D12268116820480140D4E9010318439A
:100DD000D4E903363343184363691843A3691843BE
:100DE000E3691843236A18430843616A042903D15D
:100DF000D4E90B1319430843106020684069666A00
:100E000020F0070130460E43012704280CD1A06AC8
:100E10000643E06A40B12046FFF71CFC20B14020A9
:100E2000606584F83570BAE7206846612046FFF7B0
:100E3000FDFB94F85C203F2191408160656584F85A
:100E400035700020ACE700003F8010F02DE9F04144
:100E50000446866D90F83400002501280DD001204D
:100E600084F8340094F835700020012F07D084F8FE
:100E7000340002252846BDE8F0810220FBE7022766
:100E800084F8357060652046FFF70EFC94F85C101E
:100E90003F208840B0602068016841F01601016081
:100EA000206C20B12068016841F0080101602068D1
:100EB000016841F001010160DCE7000070B5044603
:100EC00000F020F90546601C02D004480078044474
:100ED00000F018F9401BA042FAD370BD14000020A6
:100EE000014800F02FBF000008010020044910B5A0
:100EF0000A68024202D00860FFF7F2FF10BD00004E
:100F0000143C01402DE9F84FDFF8ACA10022012488
:100F10000AF1040B03254FF00F090BF1040E00BF7B
:100F20000B6804FA02F63340B3426ED10F7907F032
:100F30000307012F01D0022F16D187684FEA42081C
:100F400005FA08FC27EA0C07D1F80CC00CFA08FCDB
:100F50004CEA070CC0F808C04768B7430E79C6F3DF
:100F6000001696403E4346600E79F643B6070AD017
:100F7000C6684FEA420C05FA0CF7BE438F6807FAC1
:100F80000CF73743C7600E7906F00306022E10D126
:100F9000D60800EB8608D8F8206057074FEAD76CD0
:100FA00009FA0CF7BE430F6907FA0CF73743C8F884
:100FB000207006684FEA420C05FA0CF7BE430F7921
:100FC00007F0030707FA0CF7374307604E6816F47B
:100FD000403F6BD0394E376847F4804737603668FA
:100FE00022F0030706F480460096354E07EB060C08
:100FF000DCF8086897074FEA177809FA08F7BE4344
:10100000304FB84202D100271FE04FE02E4FB842C8
:1010100001D1012719E02D4FB84201D1022714E078
:101020002B4FB84201D103270FE02A4FB84201D11C
:1010300004270AE0284FB84201D1052705E0274FD1
:10104000B84201D1062700E0072707FA08F737431F
:10105000CCF80878DAF800605746D1F804C09E430F
:101060005FEACC3C00D51E433E60DBF800605F4683
:10107000D1F804C09E435FEA8C3C00D51E433E601D
:10108000DEF800607746D1F804C09E435FEACC2CBE
:1010900000D51E433E60084F0C373E68D1F804C0AF
:1010A0009E435FEA8C2C00D51E433E60521C102AE2
:1010B000FFF436AFBDE8F88F003C014044380240F1
:1010C00000300140000002400004024000080240DD
:1010D000000C0240001002400014024000180240C0
:1010E0000069084000D001207047426921EA0203EC
:1010F0000A4043EA0241816170470AB18161704749
:101100000904FBE7014880687047000014000020D4
:1011100070B5040025D094F83D00002520B984F86E
:101120003C50204600F04EF9242084F83D00206811
:10113000016821F0010101602068016841F400416B
:1011400001602068016821F40041016000F0DAFAD2
:101150004D4A6168914201D84C4900E04C498842AF
:1011600001D2012070BD4B492368B0FBF1F15E68EC
:1011700026F03F060E435E606368934206D94FF443
:10118000967359434FF47A73B1FBF3F12368491C0A
:101190001E6A26F03F06314319626168914210D8F9
:1011A0004900401EB0FBF1F2521CC2F30B02042AAC
:1011B00001D2042022E0B0FBF1F0401CC0F30B0090
:1011C0001CE0A268F2B301EBC10303EB0116431E5E
:1011D000B3FBF6F35B1C43F480431B0549D092B389
:1011E00001EBC10202EB0111401EB0FBF1F0401C0B
:1011F000C0F30B0040F4804040F400402168CA690D
:101200004CF6FF739A431043C861D4E907100143B9
:101210002068026822F0C00211430160D4E9030192
:1012200001432068826848F2FF339A43114381608A
:10123000D4E9050108432168CA6822F0FF0210437F
:10124000C86001E00EE016E02068016841F001018D
:1012500001602564202084F83D00256384F83E5019
:10126000002070BD01EB4106431EB3FBF6F35B1C8F
:10127000B3E70120C2E701EB4101401EB0FBF1F0F2
:10128000401CC0F30B00B7E7A086010080841E005D
:1012900000093D0040420F002DE9F84F1F469046DF
:1012A0008A460446DDF82890FFF72CFF054694F89F
:1012B0003D0020287FD11923012240492046009576
:1012C00000F06AFF002876D194F83C00012872D023
:1012D000012084F83C0020680168C90703D1016837
:1012E00041F0010101602068016821F400610160A2
:1012F000212084F83D00102084F83E00002626645A
:10130000C4F824806785608D20852D48E0622B46D7
:101310004A465146204600F0CBFE90B9206841690C
:101320008069009036E02A464946204600F0B3FF27
:1013300050B1206C042804D12068016841F4007188
:1013400001600120BDE8F88F606A216800780861BB
:10135000606A401C6062618D491E6185218D491E55
:1013600089B2218522685369DB435B070BD451B1F5
:1013700000781061606A401C6062608D401E60856C
:10138000208D401E20852A464946204600F0DEFE7C
:101390000028CED1208D0028C5D154F83D0B01681E
:1013A00041F400710160202004F81E09E677667799
:1013B0000020C7E7FFE70220C4E70000020010009A
:1013C0000000FFFF10B586B0044614216846FEF702
:1013D000E0FF13492068884220D1124800210268AA
:1013E00042F002020260006800F002000590C02096
:1013F00000901220CDE90101032003900420049005
:1014000069460948FFF77EFD06481030016841F43F
:1014100000110160006800F40010059006B010BDD6
:101420000054004030380240000402400248816805
:101430000278114481607047140000200B4810B5F9
:10144000016841F400710160016841F4806101604C
:10145000016841F480710160032000F06FF80F20F3
:1014600000F006F800F024F8002010BD003C024017
:1014700070B50D4D04464FF47A712878B1FBF0F049
:101480000A490968B1FBF0F000F064FB48B9102C80
:1014900007D200222146501E00F030F800206C6078
:1014A00070BD012070BD000014000020200000204D
:1014B0000A4808B5016841F480410160006800F401
:1014C000804000900548001F016841F08051016094
:1014D000006800F08050009008BD000044380240D1
:1014E000002809DB00F01F02012191404009800023
:1014F00000F1E020C0F8001170470000F0B40E4B7E
:101500001B680C46C3F30223C3F10705042D00D961
:101510000425191D072901D2002300E0DB1E012646
:1015200006FA05F1491E214099409E40761E16405C
:101530003143F0BC01F09EB80CED00E0064900F02C
:10154000070208684FF6FF03184040EA0220034AEA
:1015500010430860704700000CED00E00000FA0541
:101560002DE9F8431748016841F080510160006897
:10157000154F00F08050012600903E64FFF7C2FD39
:1015800005464FF47A78114C05E000BFFFF7BAFD2D
:10159000401B40450DD86068C003F7D57E64FFF757
:1015A000B1FD0546464607E0FFF7ACFD401BB042E3
:1015B00002D90320BDE8F88360688003F4D50020D9
:1015C000F8E700004038024000000E420070004082
:1015D0002DE9F0470E46050065D0DFF81481D8F8F4
:1015E0000000F7B200F00F00B04207D288F8007098
:1015F000D8F8000000F00F00B04254D128683D4CEC
:10160000810712D5400703D5206840F4E0502060E0
:101610002878000703D5206840F4604020602068E7
:10162000A96820F0F000084320602878C0072DD07A
:10163000304968680839012812D0022813D00328DD
:1016400011D00968890700292DDA216821F00301EA
:1016500001432160FFF756FD814641F2883A0EE0D2
:1016600009688903EFE709688901ECE7FFF74AFD9C
:10167000A0EB0901514502D90320BDE8F08720689D
:10168000696800F00C00B0EB810FEFD1D8F80010C2
:10169000404601F00F01B14207D90770006800F021
:1016A0000F00B04201D00120E7E72878400705D5B8
:1016B0002068E96820F4E05008432060287800079B
:1016C00006D52068296920F4604040EAC100206006
:1016D00000F028F82168084AC1F30311515CC840A2
:1016E0000649086006480068FFF7C2FE0020C4E70C
:1016F000003C024008380240A22A000820000020D6
:10170000180000200448054900680968044AC1F32C
:101710008221515CC84070472000002008380240F8
:10172000B22A0008224810B5006810F00C022148C7
:1017300015D02149042A11D01D4C241F082A0FD08E
:101740000C2A0CD12268236802F03F025B0221D5EB
:101750002068C0F38810A0FB010120E0084610BDFE
:101760002268236802F03F025B0205D52068C0F3BF
:101770008810A0FB010104E02168C1F38811A1FBDE
:1017800000010023FEF78EFD2168C1F30141491CD1
:1017900049000AE02168C1F38811A1FB0001002380
:1017A000FEF780FD2168C1F30271B0FBF1F010BDBE
:1017B000083802400024F40040787D012DE9F84FFC
:1017C00004007DD0DFF878B32078ABF10407C007C0
:1017D000A7F1040550D0DBF800105846C1F3810191
:1017E00001290FD00168C1F38101022902D13968B2
:1017F000490207D40068C0F38100032809D1386882
:10180000400206D52868800336D560680028D8D005
:1018100032E06068B0F5803F10D0B0F5A02F2868A6
:1018200010D020F480302860286820F480202860C0
:101830006068A0B1FFF766FC06460CE0286840F43B
:101840008030F4E740F480202860F7E7FFF75AFC87
:10185000801B642876D828688003F7D50CE0FFF752
:1018600051FC064605E000BFFFF74CFC801B6428D6
:10187000F0D828688003F7D42078DFF8C892800772
:101880004FF0000A44D5DBF80010584611F00C0F59
:101890000FD00168C1F38101022902D139684902E0
:1018A00007D50068C0F3810003280AD138684002D8
:1018B00007D42868800715D5E068012800D111E019
:1018C0003AE1E068B0B10120C9F80000FFF71AFC66
:1018D000064604E0FFF716FC801B0228BAD82868E9
:1018E0008007F7D52868216920F0F80040EAC10098
:1018F00028600DE0C9F800A0FFF704FC064604E0EC
:10190000FFF700FC801B02281CD828688007F7D44A
:101910002078000727D5DFF828828B48616908F115
:101920006C0881B101210160FFF7ECFB064604E081
:10193000FFF7E8FB801B022804D8D8F800008007D6
:10194000F6D510E089E0C0F800A0FFF7DBFB064603
:1019500005E000BFFFF7D6FB801B02287DD8D8F832
:1019600000008007F6D42078400769D574484FF00E
:10197000000838300068C0000BD471483830016866
:1019800041F08051016000684FF0010800F0805084
:1019900000906E4E3068C00511D4306840F48070FD
:1019A0003060FFF7AFFB009006E000BFFFF7AAFB37
:1019B0000099401A022850D83068C005F6D5604E0C
:1019C000A068683601280FD00528306810D020F0B4
:1019D00001003060306820F004003060A068B8B1C9
:1019E000FFF790FB00900FE0306840F00100F4E753
:1019F00040F004003060F7E7FFF784FB0099411ADC
:101A000041F28830814264D830688007F4D50EE016
:101A1000FFF778FB009007E0FFF774FB0099411A8D
:101A200041F28830814254D830688007F4D4B8F14C
:101A3000000F05D042483830016821F08051016024
:101A4000A069A8B3DBF80010C1F38101022947D0D7
:101A50000228C9F860A005D000E03AE0FFF752FB89
:101A6000044639E0FFF74EFB064604E0FFF74AFB69
:101A7000801B02282DD828688001F7D4F4E90701DB
:101A80000843E168324A490802EB0141A26841EA91
:101A900082110843217C40EA0160217D40EA017007
:101AA00038600120C9F86000FFF72CFB044606E00F
:101AB00044E000BFFFF726FB001B022809D8286876
:101AC0008001F7D53AE000BFFFF71CFB001B02289E
:101AD00002D90320BDE8F88F28688001F4D42DE0F6
:101AE0000128F7D03868E26900F48001914223D1DF
:101AF000226A00F03F0191421ED147F6C071626A2E
:101B00000140B1EB821F17D1A26A4FF0FF3300F4FE
:101B1000403103EB5202B1EB024F0DD194F82C206F
:101B200000F07061B1EB026F06D194F8301000F054
:101B3000E040B0EB017F01D00120CBE70020C9E7F6
:101B40000838024000004742800E474200700040C3
:101B50000000FFFF10B5401EB0F1807F01D30120CF
:101B600010BD4FF0E02460610F21601700F082FD8E
:101B70000020A06107202061002010BD7047704741
:101B800070B590F83C20012A32D0012480F83C4006
:101B9000022280F83D2003685A689D6822F0700692
:101BA0000A6832435A60134B02689A4214D0B2F169
:101BB000804F11D0104B9A420ED0104B9A420BD04E
:101BC0000F4B9A4208D00F4B9A4205D00E4B9A42C7
:101BD00002D00E4B9A4204D1496825F08003194384
:101BE000916080F83D40002180F83C10084670BDAF
:101BF000022070BD000001400004004000080040C9
:101C0000000C00400004014000400140001800406A
:101C100010B5040003D094F83D0010B107E0012096
:101C200010BD002084F83C00204600F01FF8022080
:101C300084F83D00211D206800F082FC012084F81A
:101C4000460084F83E0084F83F0084F8400084F8A1
:101C5000410084F8420084F8430084F8440084F88A
:101C6000450084F83D00002010BD000008B5016863
:101C70001448B1F1804F14D0134A914220D1016829
:101C800041F0100101600068002200F01000009097
:101C900011463620FFF732FC3620BDE80840FFF73A
:101CA0001FBC016841F0010101600068002200F0E2
:101CB0000100009011461C20FFF720FC1C20ECE7DF
:101CC00008BD0000403802400010004090F83D1070
:101CD000012901D001207047022180F83D100068E1
:101CE0001149884214D0B0F1804F11D00F49884279
:101CF0000ED00F4988420BD00E49884208D00E49B9
:101D0000884205D00D49884202D00D49884204D14D
:101D1000816801F00701062903D0016841F0010143
:101D200001600020704700000000014000040040F6
:101D300000080040000C0040000401400040014049
:101D40000018004090F83D10012901D00120704793
:101D5000022180F83D100168CA6842F00102CA60A1
:101D600000681149884214D0B0F1804F11D00F495A
:101D700088420ED00E4988420BD00E49884208D0C6
:101D80000D49884205D00D49884202D00C4988424D
:101D900004D1816801F00701062903D0016841F0F0
:101DA0000101016000207047000001400004004074
:101DB00000080040000C00400004014000400140C9
:101DC000001800400168CA6822F00102CA60016878
:101DD0000A6A41F211131A4207D10A6A9B101A4289
:101DE00003D10A6822F001020A60012180F83D1047
:101DF0000020704770B5044690F83C00002501288B
:101E000017D0012684F83C60022084F83D00206849
:101E1000826822F0770222F47F42826008685028AC
:101E200038D00DDC20284FD005DC90B3102811D11C
:101E30004AE0022070BD302846D040280AD13BE05D
:101E400060282FD070280DD0B0F5805F03D0B0F59A
:101E5000005F12D0012584F83D60002084F83C002A
:101E6000284670BDCB68D1E90121206800F0CCFB89
:101E70002068816841F0770109E0CB68D1E9012150
:101E8000206800F0C1FB2068816841F480418160D6
:101E9000E1E719E0CA684968206800F0C7FB5021F3
:101EA000206806E0CA684968206800F0D0FB60211D
:101EB000206800F0B3FBCEE7CA684968206800F0EC
:101EC000B5FB40212068F4E7226801461046F0E7A0
:101ED000704770B50446006801694FF00005C943BA
:101EE000890715D4C168C943890711D4E91E016166
:101EF00001202077206880698007204602D0FFF704
:101F0000E7FF04E000F098F8204600F096F8257707
:101F100020680169C943490717D4C168C943490703
:101F200013D46FF0040101610220207720688069DA
:101F300010F4407F204602D0FFF7CAFF04E000F013
:101F40007BF8204600F079F8257720680169C943BD
:101F5000090716D4C168C943090712D46FF00801F4
:101F60000161042020772068C0698007204602D0E4
:101F7000FFF7AEFF04E000F05FF8204600F05DF8E8
:101F8000257720680169C943C90617D4C168C943C8
:101F9000C90613D46FF01001016108202077206872
:101FA000C06910F4407F204602D0FFF791FF04E0A3
:101FB00000F042F8204600F040F8257720680169DB
:101FC000C943C90708D1C168C943C90704D1891EDB
:101FD0000161204600F032F820680169C943090612
:101FE00009D4C168C943090605D46FF080010161B5
:101FF0002046FFF7C3FD20680169C943490609D49B
:10200000C168C943490605D46FF04001016120460B
:1020100000F034F820680169C94389060BD4C1680F
:10202000C943890607D46FF0200101612046BDE84D
:102030007040FFF7A4BD70BD704770470B4910B5E5
:10204000884211D10846FFF7BDFE08210848FFF776
:1020500047F8002808D120210648FFF746F806482F
:10206000017881F00101017010BD0000080100201D
:102070000008024000000240000000207047FEE718
:1020800001684A69D24352050FD46FF480624A61F5
:10209000002140F8301F202242738173026942F010
:1020A00004020261017301207047002070470000A4
:1020B000F8B50446C06A1E460D461746082807D0E4
:1020C000012805D010F5803F02D0206B122804D1E2
:1020D0002068016841F480710160134600224FF0CE
:1020E00001112046009600F057F840B120680068C2
:1020F000C00502D54FF4007020640320F8BD2069AC
:10210000B0F5804F0ED00620216800EAD51040F0CF
:10211000F000086133463A460B49204600F070F85B
:1021200078B902E005F0FE0000E0E8B2216808613D
:10213000054933463A46891F204600F061F80028D9
:10214000DCD00120F8BD00000800010070B5164683
:102150000D4604460DE02046FFF792FF08B101202E
:1021600070BD681C05D0FEF7CDFF801BA84207D8C4
:1021700035B120684069C0434007ECD4002070BDF1
:10218000002044F8300F20216173A073216941F0D1
:10219000200121612073E2E72DE9F0471E469046B9
:1021A0000D460446C1F30747DDF8209008E0701C97
:1021B00006D0FEF7A7FFA0EB0900B0420FD876B11A
:1021C0002068012F18D0806925EA00000004000C67
:1021D00014D000214145EAD00020BDE8F08700205E
:1021E00044F8300F20216173A073216941F0200170
:1021F000216120730120F0E74069E5E70121E9E76B
:102200002DE9F0479A4691460E46044600254FF0C8
:102210002008C1F3074725E020684069C043400516
:1022200014D42068016841F40071016021686FF4E2
:1022300080604861256384F83D8084F83E50206CBE
:1022400040F00400206484F83C501FE0B9F1FF3FE7
:1022500008D0FEF757FFA0EB0A0149450CD8B9F1A9
:10226000000F09D02068012F13D0806926EA0000F2
:102270000004000C0BD0CFE744F8305F84F80D80E9
:10228000A573206940F02000206125730120BDE87E
:10229000F0874069EAE770B516460D4604460DE042
:1022A0002046FFF7EDFE08B1012070BD681C05D087
:1022B000FEF728FF801BA84207D835B12068406987
:1022C000C0430006ECD4002070BD002044F8300F5D
:1022D00020216173A073216941F0200121612073E5
:1022E000E2E700007FB500251B48009501950295A7
:1022F00018490395016001244FF480310461C0E95D
:102300000115057680F820500903C1620226C661D6
:102310004FF0C061C560816280F830404561FEF7D2
:1023200032FB08B172B6FEE7CDE9005469460A48AF
:102330000294FEF7D5F908B172B6FEE7CDE9004682
:1023400069460548FEF7CCF9002801D072B6FEE7D1
:102350007FBD00000020014024000020F0B587B0C0
:1023600014216846FEF715F823480024016841F05F
:1023700004010160016801F004010591016841F068
:1023800001010160016801F001010591016841F05E
:10239000020101600068194E00F002000590002261
:1023A00020213046FEF7A9FE4FF40050CDE900048D
:1023B000134F694638460294FEF7A4FD08200090AA
:1023C0004FF404100125CDE9010569463846FEF7B2
:1023D00099FD20200090CDE90154694630460394D0
:1023E000FEF790FD002211460920FFF787F809202B
:1023F000FFF776F807B0F0BD303802400000024029
:102400000008024010B586B00024174800940194DB
:102410000294039404944FF080410594016044F2C7
:102420004F61C0E901146421C0E903148461FFF71E
:10243000EFFB08B172B6FEE74FF48050009069469A
:102440000948FFF7D7FC08B172B6FEE72020CDE9B6
:10245000040404A90448FFF793FB002801D072B6D6
:10246000FEE706B010BD0000C0000020FEE7FEE75A
:1024700070477047FEF7DABF30B593B03421684635
:10248000FDF787FF14210DA8FDF783FF20480025E5
:10249000016841F080510160006800F080501290A6
:1024A0001C48016841F4404101600068022400F4C6
:1024B0004040129001200390102004900094069454
:1024C0000820CDE90750B420CDE909040B946846F3
:1024D0000C94FFF773F908B172B6FEE7FFF740F806
:1024E00008B172B6FEE70DA90F2081E831004FF464
:1024F000A05010904FF48050119005210DA8FFF7C7
:1025000067F8002801D072B6FEE713B030BD0000B6
:1025100040380240007000400248016841F47001F8
:102520000160704788ED00E00148FFF7D2BC000071
:10253000C00000200148FFF7CCBC000008010020CB
:10254000F0B50268254C264D264E274F274B4FF0FD
:10255000804CA04209D0604507D0A84205D0B042C7
:1025600003D0B84201D0984204D122F0700E4A68DC
:1025700042EA0E02A0421BD0604519D0A84217D0F3
:10258000B04215D0B84213D0984211D0184DA8428D
:102590000ED0184DA8420BD0174DA84208D0174DA9
:1025A000A84205D0164DA84202D0164DA84203D12C
:1025B00022F44075CA682A434D6922F080022A43FA
:1025C00002608A68C2620A688262A04201D09842B0
:1025D00001D10969016301214161F0BD00000140A1
:1025E0000004004000080040000C004000040140CE
:1025F00000400140004401400048014000180040F4
:10260000001C00400020004010B5846842EA03220C
:1026100024F47F440A432243826010BD826822F082
:1026200070020A4342F007018160704710B5036AE7
:10263000046A24F001040462846924F0F00444EA8A
:10264000021423F00A020A438461026210BD10B52D
:10265000036A23F0100303628369046A23F470435E
:1026600043EA023224F0A00343EA011182610162CD
:1026700010BDFEE70907090E002804DB00F1E02089
:1026800080F80014704700F00F0000F1E02080F89F
:10269000141D704710B5802000F056F8002420204B
:1026A00000F072F8641C462CF9DB10BD10B5322026
:1026B000FEF704FC302000F047F80520FEF7FEFB93
:1026C000302000F041F80120FEF7F8FB302000F048
:1026D0003BF80A20FEF7F2FB202000F035F80A2034
:1026E000FEF7ECFB282000F02FF80120FEF7E6FBB8
:1026F000082000F029F80120FEF7E0FB012000F09F
:1027000023F80120FEF7DAFB0120FEF7D7FB0620B5
:1027100000F01AF80120FEF7D1FBBDE810400E20B2
:1027200000F012B858B1012804D0022804D00328C0
:1027300005D103E0403102E0143100E05431C8B269
:1027400040F08000AFF300801CB500F0F00141F0D4
:102750000C028DF8042041F0080100018DF80510ED
:1027600040F00C018DF8061040F008008DF80700CD
:1027700064200090042301AA4E210248FEF78CFD3C
:102780001CBD00006C0000201CB500F0F00141F001
:102790000D028DF8042041F0090100018DF80510AB
:1027A00040F00D018DF8061040F009008DF807008B
:1027B00064200090042301AA4E210248FEF76CFD1C
:1027C0001CBD00006C00002010B5044604E000BFF2
:1027D00014F8010FFFF7D8FF20780028F8D110BDBA
:1027E0001CB5FEF72BFEFFF747FEFFF7B7FD984835
:1027F0000025016841F48001016000682A4600F468
:102800008000009029463820FEF778FE3820FEF739
:1028100067FEFFF767FD90488E4901608F49C0E968
:1028200001154FF48041C0E9035145618561C561DF
:102830000562FEF76DFC08B172B6FEE786480095AA
:102840009C3087490195016042F22831C0E90115A9
:1028500032218561C160FFF7DBF908B172B6FEE78E
:102860007D48009569469C300195FFF789F908B1CC
:1028700072B6FEE7FFF7C6FD77485430FFF726FA39
:102880007548022277494838FEF7FCF8FFF70EFF3B
:1028900000210846FFF746FF73A0FFF795FF0021D0
:1028A0000120FFF73FFF73A0FFF78EFF00210220FA
:1028B000FFF738FF72A0FFF787FF00210320FFF723
:1028C00031FF70A0FFF780FF4FF47A70FEF7F6FA41
:1028D000FFF7E0FE634EDFF8B4A14FF0010940F6C8
:1028E000E44740F6EA38A6F10C04E178A078FFF757
:1028F00019FF2078002858D0607830B1A0793030A6
:10290000C0B2FFF741FFA58005E020794130C0B299
:10291000FFF73AFFE5803068B8420DD965700122B3
:1029200020215046FEF7E9FBA088401C80B2A08021
:1029300039280DD9A5800BE064280FD265700122DB
:1029400020215046FEF7D9FBA08828B1401EA08068
:102950002089FEF7B3FA06E03920F8E700222021AB
:102960005046FEF7CAFB706840450ED984F80190C6
:10297000012220215046FEF7C0FBE088401C80B2B7
:10298000E080092854D9E58052E0642856D284F8C2
:102990000190012220215046FEF7AFFBE08810B1E4
:1029A000401EE08044E00920FBE7A580E580306818
:1029B000B8420CD9012220215046FEF79EFBE07858
:1029C000401CC0B2E07013280CD9E5700AE06428FE
:1029D0000ED2012220215046FEF78FFBE07828B16D
:1029E000401EE0702089FEF769FA06E01320F8E740
:1029F000002220215046FEF780FB706840450CD92C
:102A0000012220215046FEF778FBA078401CC0B27E
:102A1000A07003280CD9A5700AE064280ED2012208
:102A200020215046FEF769FBA07828B1401EA07017
:102A30002089FEF743FA06E00320F8E70022202170
:102A40005046FEF75AFB3220FEF738FA4DE70000F9
:102A500030380240005400406C000020A086010085
:102A6000001000400C0000204A4F59535449434B7A
:102A700000000000434F4E54524F4C4C4544200040
:102A80004C4344004A616D6573442E0000000240CF
:102A90004FF04070E1EE100A704700061016000675
:102AA00010160000000000000000010203040607E9
:102AB000080900000000010203040000DC2A0008ED
:102AC000000000202400000000020008002B000885
:102AD00024000020EC0700001C0200080000000099
:102AE000000000002C0100000000000000000000B9
:102AF0000100000010000000000000000024F400AD
:04000005080001C529
:00000001FF
